:020000040800F2
:10000000785D002039030008E1660008716100088E
:10001000A966000821210008697700080000000097
:10002000000000000000000000000000C1670008A0
:10003000592A0008000000005167000849680008BC
:100040005303000853030008530300085303000838
:100050005303000853030008530300085303000828
:100060005303000853030008530300085303000818
:100070005303000853030008530300085303000808
:1000800053030008530300085303000853030008F8
:100090008125000891250008530300085303000838
:1000A00053030008530300085303000853030008D8
:1000B00053030008530300085303000853030008C8
:1000C00053030008530300085303000853030008B8
:1000D00053030008530300085303000853030008A8
:1000E0005303000853030008530300085303000898
:1000F0005303000853030008530300085303000888
:100100005303000853030008530300085303000877
:100110005303000853030008530300085303000867
:1001200053030008B12800085303000853030008D4
:100130005303000853030008530300085303000847
:10014000A1250008B1250008530300085303000847
:10015000530300085303000853030008D576000832
:100160005303000853030008530300085303000817
:100170005303000853030008530300080000000065
:1001800053030008530300085303000853030008F7
:1001900053030008530300085303000853030008E7
:1001A00000000000000000005303000800F002F807
:1001B00000F0B2F814A696E8000CB244B344DA4555
:1001C00001D100F0A9F8BAE80F000FA696E83000B8
:1001D000A5EB040504EB0607AAEB0704A7F101074A
:1001E0004FEA15154FEA3414A4F10104AC4201D3CF
:1001F00000F092F813F0010F18BFFB1A43F001034F
:1002000000F001F8DBE7184798AE0000B8AE000038
:10021000103A24BF78C878C1FAD8520724BF30C832
:1002200030C144BF04680C60704700007047000094
:100230000023002400250026103A28BF78C1FBD8EF
:10024000520728BF30C148BF0B6070476E2900F0CD
:100250001183702900F0478466290AF09385652987
:100260000AF0908567290AF08D8561290AF08C854E
:1002700003681B0A28BF41F08001692900F0BE8293
:10028000642900F0BB82752900F0B8826F2900F064
:10029000D583782900F01384E92900F06F83E429DD
:1002A00000F06C83F52900F06983EF2900F0D28318
:1002B000F82900F012840368DB0928BF41F08001AF
:1002C000632901F07F81732901F08481E32901F022
:1002D0008F81F32901F09481002070471FB50AF047
:1002E00044FD9DE8030000F0BFF901F087FA040027
:1002F000002000210AF0ACFC401C606000200021BE
:100300000AF090FCE06001F083F900F07BF91FBD7A
:1003100010B501F0E6F910BD01F042FA1146FFF701
:10032000DDFF07F0C3FF01F0D1FC03B4FFF7F0FFDE
:1003300003BC07F083FF00000948804709480047D5
:10034000FEE7FEE7FEE7FEE7FEE7FEE7FEE7FEE785
:10035000FEE7FEE704480549054A064B70470000E2
:100360002D690008AD01000878450020785D002067
:10037000785500207855002070B5064600F058F9F1
:10038000056806F10B0020F00704B4429CBF002072
:1003900070BD2B466A68BAB11068A04210D304F150
:1003A000080188423CBF5068586007D35168101953
:1003B00041601168091B016058601460101D70BD18
:1003C00013465268002AE7D12146284600F038F942
:1003D0000028DED170BD53EA020C00F069802DE9DF
:1003E000F04B4FF00006002B1FBFB3FA83F503FA62
:1003F00005F424FA05F65E4012BF1643B2FA82F500
:1004000002FA05F4C5F120051EBF22FA05FC44EAF4
:100410000C04203556EA044C4FEA144418BF641CFF
:100420004FF000084FF00009904271EB030C39D3F4
:10043000002919BFB1FA81F701FA07F6B0FA80F77F
:1004400000FA07F6C7F120071EBF20FA07FC46EAAC
:100450000C062037B6FBF4FCA7EB0507103F07F0AE
:100460001F0BCBF120062CFA06F60CFA0BFB44BF4F
:10047000B3460026202FA4BF5E464FF0000B5BEA78
:10048000060C08BF4FF0010B19EB0B0948EB0608EF
:10049000ABFB027C06FB02CC0BFB03CCC01B71EB5D
:1004A0000C01C1E70B46024641464846BDE8F08BC9
:1004B00013B5084318BF4FF0FF300146AFF300807B
:1004C000BDE81C40704700000FB4044910B503AAF2
:1004D000029800F0E3F910BC5DF814FB84000020E2
:1004E000032A40F2308010F0030C00F0158011F860
:1004F000013BBCF1020F624498BF11F801CB00F838
:10050000013B38BF11F8013BA2F1040298BF00F88B
:1005100001CB38BF00F8013B11F0030300F0B283B8
:10052000083AC0F0088051F8043B083A51F804CB6F
:10053000A0E80810F5E7121D5CBF51F8043B40F835
:10054000043BAFF30080D20724BF11F8013B11F840
:1005500001CB48BF11F8012B24BF00F8013B00F884
:1005600001CB48BF00F8012B70474FF0000204296F
:10057000C0F0128010F0030C00F01B80CCF1040CD2
:10058000BCF1020F18BF00F8012BA8BF20F8022B06
:10059000A1EB0C0100F00DB85FEAC17C24BF00F8AC
:1005A000012B00F8012B48BF00F8012B70474FF0DA
:1005B000000200B5134694469646203922BFA0E8B3
:1005C0000C50A0E80C50B1F12001BFF4F7AF0907BF
:1005D00028BFA0E80C5048BF0CC05DF804EB8900B0
:1005E00028BF40F8042B08BF704748BF20F8022BF3
:1005F00011F0804F18BF00F8012B7047704770470B
:100600007047000008487CB578440090074878445B
:10061000009C0546019004E020460168084480479C
:10062000241DAC42F8D17CBDE0AB0000DEAB000085
:10063000004870473401002070477047704770478A
:1006400038B504460A4600206946AFF3008000280A
:1006500008BF38BD02460099204600F04DFB01203E
:1006600038BD012001F094B8F8B5AFF3008005461D
:1006700000200C460C2000BF0646A819A0420DD948
:10068000324669460020AFF30080070008BF01F042
:100690007FF80098A04218BF0546C419FFF7C8FFAD
:1006A00005600746F01D20F007004619284600F0B7
:1006B0000AF8B44208BFF8BDA21B31463868BDE84D
:1006C000F84000F019BB00210160416070470C2028
:1006D000704770B50446051FFFF7AAFF0068002C9D
:1006E00014BF446870BD002C18BFAC423CBF20460C
:1006F0006468F8D301680A18AA4218BF456003D19C
:100700002A6805461144016028684119A1421CBFAE
:100710006C6070BD6168696021680844286070BDC4
:1007200010B500F0E5FA006810BD10B5044600F001
:10073000DFFA046010BD70B5044685690068C10623
:1007400001D5302600E02026C00707D070BDD4E9CF
:10075000012130469047206A401C20626D1EF6D56C
:1007600070BD70B5044685690078C00707D170BDBB
:10077000D4E9012120209047206A401C20626D1E90
:10078000F6D570BD09684A0501D540B27047C90564
:10079000FCD500B2704709684A0501D5C0B2704760
:1007A000C905FCD580B2704770B50C460546012AD4
:1007B00005D02878800600D5EA69002302E00123ED
:1007C00005E05B1C934202D2E05C0028F9D1A869E5
:1007D000E618C01AA861286A184428622846FFF75C
:1007E000AAFF04E0D5E9012114F8010B9047B442B7
:1007F000F8D32846FFF7B5FF70BD00002DE9F041A2
:100800000646002410687529314616A510D0FFF75A
:10081000B9FF002802DA404213A507E031688A07D1
:1008200001D512A502E0490704D511A5012401E074
:10083000FFF7B1FF00210A2206F1240709E0B0FB0F
:10084000F2FCB0FBF2F302FB1C0030307854184687
:10085000491C0028F3D123462A463046BDE8F04122
:1008600000F0A9BA000000002D0000002B000000DD
:100870002000000011680268006A530501D5087065
:100880000AE0D30501D5088006E0130603D5C21798
:10089000C1E9000200E0086001207047074B70B515
:1008A0000D467B4400F071FE0446284600F0ACFE85
:1008B00010B14FF0FF3070BD204670BD25A3000081
:1008C0002DE9FF5F15468A460446DFF8AC80F84400
:1008D0000027D8E900103E46CDE9001010E03AF8B4
:1008E00016106A4602A800F02FFF411C07D021789D
:1008F000890603D5E269391891420DD80744761C60
:100900002078800602D5E069B84205DDAE42E6DB1C
:100910003AF816000028E2D1A069C01BA061204669
:10092000FFF709FFD8E90010CDE90010002017E01B
:100930003AF818106A4602A800F006FFB0F1FF3F2F
:1009400081460BD000250DF1080B05E0D4E901210B
:100950001BF8050090476D1C4D45F7D308F10100C9
:10096000B0428046E4DB206A384420622046FFF72C
:10097000F8FEBDE8FF9F0000BAA400002DE9F04199
:100980008046D21D22F007020025D2E90002F52997
:1009900015A614D0011E72F1000106DA0023D0EB77
:1009A000030063EB020211A608E0D8F800108B07E1
:1009B00001D50FA602E0490701D50EA60125114673
:1009C000002408F1240704E000F0B0F930323A5571
:1009D000641C50EA0102F7D12B46324621464046BC
:1009E000BDE8F04100F0E7B9000000002D00000074
:1009F0002B0000002000000030B4002100F124048E
:100A000008E002F00705D208303542EA4372DB08FD
:100A10006554491C52EA0305F3D10468002310A26F
:100A2000250708D504F020040C4304D0C469012331
:100A30000CA2641EC46130BC00F0BDB910B5044600
:100A400021461068FFF7A7FE02462046BDE8104089
:100A50000023D1E7D21D22F00701D1E90023CBE723
:100A60000000000030000000F0B40D4601880905C8
:100A700002D5214C7C4402E01F4C7C440E34002102
:100A800000F1240608E002F00F071209E75D42EAD0
:100A900003721B097754491C52EA0307F3D1027809
:100AA0000023120704D5702D06D009B1022311349A
:100AB0002246F0BC00F07FB901231034F8E770B58E
:100AC00004460D4621461068FFF765FE024629469A
:100AD0002046BDE870400023C6E7D21D22F0070380
:100AE000D3E90023C0E70368126843F020030360E2
:100AF0000823C3610023B7E71CA300002DE9F05FC2
:100B0000894604464FF0000ADFF874B1FB44C0F890
:100B100020A02046E1688847002874D0252806D008
:100B2000D4E901219047206A401C2062F1E70026A9
:100B30005F462046E16888472028054607DB312DBF
:100B400005D2781910F8200C08B10643F1E7B00778
:100B500001D526F00406C4F81CA00027C4F818A08C
:100B60002A2D09D028460AF029F838B304EB870863
:100B7000303DC8F8185019E059F8041B204604EB22
:100B800087029161E1688847012F054618D1E06925
:100B9000002820DA26F020061DE0D8F8180000EB27
:100BA000800005EB40003038C8F818002046E168A6
:100BB000884705460AF002F80028EED1012F0AD036
:100BC0002E2D08D12046E16888477F1C0546022F5C
:100BD00046F02006C4DBA069002803DA404246F054
:100BE0000106A061F00701D026F010066C2D0BD095
:100BF000682D09D04C2D39D06A2D35D0742D35D0C3
:100C00007A2D33D016E038E0E1682F462046884739
:100C1000B842054609D16C2F26D04FF48060E168B8
:100C2000064320468847054604E06C2F1AD04FF44F
:100C3000807006430DB3A5F14100192802D8203574
:100C400046F400664A462946204626604E46FFF78F
:100C5000FDFA80B101280BD0F61D26F0070000F147
:100C6000080956E74020E4E78020D8E70020D6E7CF
:100C700006F104094DE7284652E7206ABDE8F09FD7
:100C8000ACA2000010B5203AC0F00B80B1E81850BB
:100C9000A0E81850B1E81850A0E81850203ABFF466
:100CA000F5AF5FEA027C24BFB1E81850A0E8185005
:100CB00044BF18C918C0BDE810405FEA827C24BF59
:100CC00051F8043B40F8043B08BF7047D20728BFE7
:100CD00031F8023B48BF11F8012B28BF20F8023B36
:100CE00048BF00F8012B7047004870472C010020D6
:100CF000004870472C010020034640688C460028BD
:100D000018BF88423CBF03464068F8D318681844AF
:100D1000884207D00CF1030020F00700001D411AA3
:100D2000521A0146081D0A60FFF7D3BC30B5B0F176
:100D30000A0271F100034FEA900E4EEA817EB0EB99
:100D40000E0061EB91014FEA101E4EEA017E10EB9E
:100D50000E0041EB11114FEA102E4EEA016E10EB1E
:100D60000E0041EB11214FEA104E4EEA014E10EBFE
:100D70000E0041EB1141401841F100014FEAD00053
:100D800040EA41704FEAD1014FEA810444EA90748D
:100D900010EB800544EB01046D1944EB0404521B75
:100DA000A3414FF0000348BF0A3200D530BD401CBC
:100DB00041F1000130BD2DE9F0470D4699469246BC
:100DC000044600F124080168880604D5E06921F092
:100DD0001001216000E00120A84201DD471B00E076
:100DE0000027A1697A1902EB0900081AA06120788E
:100DF000C00602D42046FFF79EFC002608E0D4E996
:100E000001211AF806009047206A401C761C2062D7
:100E10004E45F4DB2078C0060AD52046FFF78BFC50
:100E200006E0D4E9012130209047206A401C20626E
:100E3000381EA7F10107F4DC07E0D4E9012118F816
:100E400005009047206A401C2062281EA5F101057C
:100E5000F3DC2046FFF785FC2078000602D502204F
:100E6000BDE8F0870120FBE72DE9FF4F0C461E4649
:100E70004FF0FF378BB0D2E90001DDF860800A90B7
:100E80008A46C1F30A5505B93D46002108464FF090
:100E90000000BAF1000F00F4400005DA00EB80001A
:100EA0004FF4400101EA50004FEA9059B9F1010FA7
:100EB00000DDB9460A9850EA4A000ED044F61050B8
:100EC000A5F2FF3545432F14B8F1000F1ED075422F
:100ED000291E1EDDC9F100021CE0B8F1010F4FF020
:100EE000000001D0302103E0F24305E02154401C12
:100EF000B042FBDB30460022002121540B99C1F89F
:100F00000880C1E900200FB0BDE8F08FBD1B6D1C4B
:100F1000DEE74A4600DA694206A800F0B3FC06ABF9
:100F200093E8070003AB83E8070050460A9908F0EE
:100F30008BFF8DE80700A0F500501F380090039844
:100F4000002D0ADD42F21F014A460844002303A98E
:100F50000390684609F0F4F909E0A0F500504A460C
:100F60001F38002303A90390684609F0FEF98DE8B5
:100F700007000004000C03D04FF0FF30410800E0F0
:100F80001046B8F1000F03D00022009215461EE073
:100F9000751E05D4FFF7CAFE303262556D1EF9D5B5
:100FA000B3460122084302D000227F1C04E02078CF
:100FB000302801D100227F1E002A099784D01DE02D
:100FC000112D07DAFFF7B2FE303262556D1C50EA80
:100FD0000102F5D1084302D00098C8B10EE000210B
:100FE000681E05E0235C625C63542254401E491C69
:100FF0008142F7DBAB46A81B401E0990002004F895
:101000000B000B98099AC0F80880C0E9002B7AE71A
:1010100011264FF0000857E72DE9F04F88460446A7
:10102000D21D22F0070191B0D1E90001CDE90A01FA
:1010300009F0D2FA02460B98C00F01D02D2007E02C
:101040002068810701D52B2002E0202101EAC000A1
:10105000032A099001D0072A05DB034641462046B2
:1010600000F0D0FB0BE12078800601D5E06900E0BC
:101070000620B8F1650F814606D0B8F1660F18D08A
:10108000B8F1670F70D131E00020B9F1110F009075
:1010900001DB112301E009F101030AAA01A90CA84F
:1010A000FFF7E2FEDDE90C70002609F10105834639
:1010B00047E001204B4600904FF000470AAA01A9E3
:1010C0000CA8FFF7D1FEDDE90DB00C995D460026B6
:1010D00010B909F101000D18B9EB050003D4C0F1F6
:1010E000FF3609F10105A5EB09002BE0B9F1010F6D
:1010F00001DA4FF001090020B9F1110F00904846C4
:1011000001DD112300E003460AAA01A90CA8FFF79C
:10111000ABFEDDE90C704D460026834620780007C3
:101120000AD4AB4500DA5D4601A8012D04DD411962
:1011300011F8011C302907D04F4502DA17F1040FCE
:1011400004DA012082460FE06D1EEEE7002F02DC7C
:10115000ED1B3E4403E0781CA84200DD7D1CB81B5B
:1011600000F1010A4FF000472078000703D4AA4598
:1011700001DB4FF0FF3A0021B7F1004F0DF14308BA
:101180008DF8431024D002202B23002F01DA7F4258
:101190002D230A21021EA0F1010000DC5FB197FBA4
:1011A000F1FC97FBF1F201FB1C7C17460CF1300CB3
:1011B00008F801CDEEE7A8F10100037021880905C8
:1011C00001D5452100E06521A0F1010800F8011CCE
:1011D00009980FA9A1EB0807FF1D00B101204119D3
:1011E00001EBEA70A1693844081A401EA06120781A
:1011F000C00602D42046FFF79EFA099828B1D4E928
:1012000001219047206A401C20622078C00622D528
:101210002046FFF790FA1EE0002E04DBB34502DD06
:1012200001A8805D00E03020D4E901219047206AC8
:10123000401C2062761CAAF101005FEA000A0AD174
:1012400000F0DCFAC0680168405CD4E901219047F5
:10125000206A401C2062281EA5F10105DCDC07E0A5
:10126000D4E9012118F8010B9047206A401C206244
:10127000381EA7F10107F3DC2046FFF772FA0320BE
:1012800011B041E62DE9F04F04460D46D21D22F083
:10129000070089B0D0E900974846394609F09CF923
:1012A0000246F80F01D02D2307E02068810701D501
:1012B0002B2302E0202101EAC0038DF820300BB17E
:1012C000012000E00020032A824601D0072A04DB27
:1012D0002946204600F096FA3FE12078800601D4A6
:1012E0000D2500E0E569C7F30A560D2D49DA002106
:1012F0004FEA175B08464FF00000002F00F4400053
:1013000007DA00EB80004FF4400100EBD07001EAF7
:1013100060008115012901DD4FF0FF3100224FEA05
:10132000850CBCF1180F06D31346ACF118004FF032
:101330008052C24003E04FF4801323FA0CF30CF107
:101340000C0CBCF1200F04D3ACF1200C09FA0CF00A
:1013500001E007FA0CF000294FF0004801DD18B950
:101360000FE00ED140450CD319EB02095F4121B9C2
:10137000404502D19F4329EA0209BBEB175F00D029
:10138000761C2088000502D57B48784402E07A4824
:101390007844193808AA302302F80A30037C0AF18D
:1013A0000101002E0AF1020A53546A4602DC4FF092
:1013B000300101E04FF031014FF001088DF80010CD
:1013C00002D0A6F2FF3603E059EA470100D06B4E87
:1013D000002D02DC2178090704D54FF002082E21E8
:1013E0008DF80110C44600210BE0C7F303433F0111
:1013F000C35C491C6D1E02F80830052908F101087C
:1014000001DA002DF1DC00210CE000EB1973491C1E
:101410001B786D1E082902F808304FEA091908F1F7
:10142000010801DA002DF0DC21688B0602D516E0F8
:10143000A8F10108E04505DD02EB080313F8013CC3
:10144000302BF5D0B8F1000F09DD02EB080313F8DB
:10145000013C2E2B03D1090701D4A8F10108002D6E
:1014600005DD3E2102F808106D1E08F10108407CE0
:10147000002E02F8080008F1010804DA2D20764257
:1014800002F8080002E02B2002F808000A214FF4BD
:101490007A70864208F101080BDB96FBF0F33033DB
:1014A00002F8083096FBF0F308F1010800FB136620
:1014B00001E0642E0CDB642096FBF0F3303302F87D
:1014C000083096FBF0F308F1010800FB136601E019
:1014D0000A2E06DB96FBF1F0303002F8080008F126
:1014E000010896FBF1F001FB1060303002F80800B3
:1014F000A16908F1010808EB050202EB0A00081ACD
:10150000A0612078C00602D42046FFF714F9216AB2
:1015100008AE01EB0A00206204E0D4E9012116F8CC
:10152000010B9047BAF1010AF7D22078C00602D524
:101530002046FFF700F96E4609E016F8010B3E2839
:101540000FD0D4E901219047206A401C2062B8F1F5
:101550000108F2D22046FFF704F909B00320BDE8E4
:10156000F08F206A2844206203E0D4E90121302072
:1015700090476D1EEBD3F8E7529A000002FCFFFF84
:1015800001694A1C02610878704700B58FB0CDE947
:1015900001310021059105497944CDE90310114637
:1015A0006846FFF7ABFA0FB000BD0000E5FFFFFF94
:1015B00010B5436913B1AFF3008001E0FFF7F4F811
:1015C000012010BD127800F124010A7000224A7037
:1015D0000122EDE711684FF0FF32E9E710B54369EA
:1015E00013B1AFF3008001E0FFF76AF9012010BDED
:1015F000128800F1240182840022C2840122EDE7D6
:1016000011684FF0FF32E9E7007B00F0800070477F
:1016100010B542485421FEF7CAFF41485421FEF755
:10162000C6FF40485421FEF7C2FF3F493B483C4AB1
:101630003F4B08603D490A603A491960531C0365F5
:10164000481C1065012008653B48344A39A178449C
:1016500000F09EFA20B9384878440A3800F044FB7C
:1016600037482F4A35A1784400F092FA20B934481F
:1016700078440A3800F038FB32482A4A2FA17844CF
:1016800000F086FA20B92F4878440A3800F02CFB85
:1016900040232248DC000021224600F056FA20B107
:1016A00025487844543800F01FFB1D48224640234B
:1016B000002100F04AFA20B121487844543800F063
:1016C00013FB184822461023002100F03EFA0028A0
:1016D00006D01C487844BDE81040563800F004BBE2
:1016E00010BD104870B5006D20F001040B4800F0EB
:1016F000C7FA0B4800F0C4FA0A4800F0C1FA09E042
:10170000206D20F00105204600F0BAFA2046FEF7D1
:10171000E0FF2C46002CF3D170BD0000300000200B
:1017200084000020D80000200000002004000020D9
:101730000800002072000000A19700007700000060
:101740008D970000799700002DE9F04116460C4670
:10175000054600F04BF8036893F80101012807D013
:10176000FF2C12D8185D80B101202C70BDE8F081EB
:10177000D3F807013246214603F20713C71828465B
:10178000BC46BDE8F041002360474FF0FF30EDE775
:1017900010B500F0B1FABDE8104000F0A0BA7047F3
:1017A0007546FFF7A1FAAE4605006946534620F09C
:1017B0000700854618B020B5FEF7CCFDBDE82040F7
:1017C0004FF000064FF000074FF000084FF0000BFD
:1017D000AC46ACE8C009ACE8C009ACE8C009ACE86C
:1017E000C00921F007018D467047000010B500F0D8
:1017F00005F8001D10BD00BF599400000048704757
:101800004C0100202DE9F0411F46044603260168E3
:10181000072A01F4006004DB08B116A505E016A54F
:1018200003E008B115A500E015A521F01000206027
:10183000A069C01EA0610FB1401EA0612046FEF746
:101840007AFF4FB1D4E9012138469047206A401C05
:101850002062C01C206206E0206AFAE7D4E9012178
:1018600015F8010B9047761EF8D22046FEF779FF57
:10187000BDE8F0814E414E006E616E00494E46005B
:10188000696E66002DE9F047814616468AB03548F4
:1018900078440DC88DE80D0032487844801C03ACB4
:1018A0000DC884E80D0041F69B300844372190FBB9
:1018B000F1F290FBF1F5A5F1800501FB12041B3C50
:1018C00002D56442012000E00020DFF898A08046A5
:1018D0000027FA44AAF1BE0A0EE0E0070AD0324619
:1018E000684607EB470101230AEB810108F03DFD43
:1018F0008DE8070064107F1C002CEED1194F7F4447
:10190000AE3F19E0E80715D007EB04100DF1180AF7
:1019100090E80E008AE80E00C068F04201D19819E4
:1019200008903246012306A903A808F01EFD03AB68
:1019300083E807006D10641C002DE3D14FF0010314
:1019400032466946B8F1000F03A802D008F0F8FC4F
:1019500001E008F00AFDC9E90001C9F808200AB051
:10196000BDE8F087E89500002DE9F05F05461746D1
:101970000C46C86820F4201040F48000C86080063F
:1019800002D5084600F0F3FAE06841F282014FF018
:10199000FF3A0140022903D0204600F085FAB9E061
:1019A00000F42041B1F5004F0FD1C00306D56168A6
:1019B000E06A884200D80846606006E02069E0627C
:1019C0006060606900F0EDF9A061A0680022EEB2ED
:1019D00000280DDAE1688B050AD4C043A06041F409
:1019E00090302260E0606068411C61600670AAE08F
:1019F000E0689146226040F40050E060206978BBC6
:101A0000606900F0C0F904F124054FF00108A8B1A5
:101A1000A08910F4407F08D0E069FEF7ADFC20619A
:101A200018B1E06840F4006017E0C4F81C8025613C
:101A3000E06820F4407040F480600EE0E069FEF75A
:101A40009BFC00282061F0D0E06840F4006010F4B6
:101A5000407FE06002D140F48070E0602069606007
:101A6000E06825696FF0010BC1051ED56168E06A69
:101A7000884200D80846411B04D02246284600F080
:101A80001DFAE8BB1FB1E562C4E9015959E0681CC1
:101A9000E0626060E069401EA060E06840F4803071
:101AA000E06030462E70BDE8F09F17B100F4803240
:101AB0000AE06068411C61600670E0680A2E40F42C
:101AC0008030E06006D00022E16A6068814203D97C
:101AD0000B4602E00122F7E70346B4F80CC05B1B9B
:101AE0005FEA4C5C04D4D4F81CC09C4500DD02B312
:101AF000814200D80146002BA1EB0008E56200E01E
:101B000008E0C4E9015907DD22461946284600F0DD
:101B1000D5F908B15046C6E7B8F1000F09D0A16960
:101B2000E5626560A1EB0800A061E06840F010008C
:101B3000E06047B16168A069E562491B08446560DF
:101B4000A0615846AFE73046ADE770B5C468A50759
:101B500013D0650211D4B2F5807F09D0B2F5007FB1
:101B600006D0B2F5806F08D1012300F1240106E010
:101B70005D1E6FF07F46B54201D3012070BD01614B
:101B8000C361416024F470611143C160002070BDE5
:101B90002DE9F0410C461646070047D0104600F0EC
:101BA0006FF82078611C61280AD0722802D077284B
:101BB0003CD102E00125002405E00225042402E0D6
:101BC000082448F2020511F8010B2B2806D06228E0
:101BD00009D011F8010C74280AD00BE045F0030578
:101BE00044F00204EFE745F0040544F00104EAE79D
:101BF00044F010043846214600F08CFA411C15D000
:101C00000021316171604FF40071F560F161706124
:101C1000200704D530460222002100F0C9F8306DBB
:101C200040F0010030653046BDE8F0810020FBE760
:101C30002DE9F0410D460646104C206DC10704D039
:101C4000410804D020F00104F7E722460EE05420BA
:101C5000FEF792FB07000ED0206D47F0010108430C
:101C6000542120653846FEF7A2FC3A462946304604
:101C7000BDE8F0418CE70020D6E7000030000020EE
:101C80002DE9F04704464FF0FF380026C568D4E937
:101C90000497A80718D0204600F046F9384600F00F
:101CA0005DF8002800DA4646280502D54846FEF7CA
:101CB00010FD4C212046FEF77AFC206D20F001003B
:101CC00020653046BDE8F0874046FBE710B5044686
:101CD000AFF300802046BDE81040FEF726BB002889
:101CE00001D006F0ABBA704710B500F07BF9BDE843
:101CF0001040FFF7F4BF000010B5012805D0002107
:101D000003A000F055F9012010BD09A1F8E700007B
:101D100053494752544D454D3A204F7574206F66D4
:101D20002068656170206D656D6F7279000000003C
:101D30003A2048656170206D656D6F727920636F20
:101D400072727570746564000EB5CDE9000100F023
:101D5000C2F9029069460120ABBE0EBD08B56946C6
:101D600000900220ABBE08BD1FB58DE80700694694
:101D70000520ABBE04B010BD1FB58DE80F0069464D
:101D80000620ABBEF6E708B5694600900920ABBE59
:101D900008BD1CB5CDE9000169460A20ABBE1CBDDB
:101DA000704708B5694600900C20ABBE08BD000026
:101DB0002DE9F041044616460D464769007B800731
:101DC0002ED03846FFF7DFFF50BB3EB3012E02D0C6
:101DD000022E25D104E0204600F05CF905441DE008
:101DE0003846FFF7DEFFE168002841F01001E160AE
:101DF00005DA204600F058F80120BDE8F081C9035B
:101E00000BD56268E16A914200D81146A26911447B
:101E10002269891A814200DD08460544002D01DA55
:101E20000220EAE7E16A6068E268814206D2910333
:101E3000E06203D522F4003141F01002A6690027C8
:101E4000AE4213DCE16A814201D90B4600E0034651
:101E500003EB060C2369ACEB030CAC4506DD8142B9
:101E600001D98C4600E084469C4505D1A7602760D7
:101E700042F02000A5620DE0AD1BE669AE1B814279
:101E8000A66000D90846C01A281A20605819606058
:101E900022F0200003490840E060002084F84870E8
:101EA000ABE70000BFCFD7FFC16821F4001141F0BC
:101EB0008001C16000218160016070472DE9F74F0A
:101EC00015460C464FF0FF3B3848D768D2F814A0AF
:101ED000074209D05046A969FFF75BFF002819DBCC
:101EE0003248C0430740EF604FF000496FF00048B0
:101EF0004C4501D3464600E0264600993B465046F5
:101F00003246FFF731FFA96920F00042B21A1144AE
:101F1000A96128B12846FFF7C7FF5846BDE8FE8FE4
:101F2000A41BE5D10020F9E770B504460569C06A35
:101F30006168884200D80846E16821F42011E16018
:101F4000C90312D5A84208D02246411B2846FFF7F4
:101F5000B5FF10B14FF0FF3070BD0020E562C4E95D
:101F60000150E06820F48030E060002070BD10B5C2
:101F70000446C06820F02000E060A16AA0698842A1
:101F80000DD02046FFF7D0FFE06820F4405040F02D
:101F90001000E060A06AA0612069E062606044F225
:101FA0004001E0688843E06010BD000010000200BE
:101FB00070B505460C460A2000E06D1C06F042F99B
:101FC00035B128780028F8D102E0641C06F03AF90F
:101FD00014B120780028F8D1BDE870400A2006F03E
:101FE00031B9000010B5014602A0FFF7E1FF012062
:101FF00010BD000053494752545245443A2052659F
:102000006469726563743A2063616E2774206F702F
:10201000656E3A200000000030B44FF0013C50F8EB
:10202000042B51F8043BCCFA52F4D51A20D1FCB958
:1020300050F8042B51F8043BCCFA52F4D51A17D1BE
:10204000B4B950F8042B51F8043BCCFA52F4D51A29
:102050000ED16CB950F8042B51F8043BCCFA52F471
:10206000D51A05D1002CDAD030BC4FF000007047F3
:1020700029BAB1FA81F111F01801D1F120008440A0
:10208000F2D1CA40CB4012F0FF0213F0FF0330BC84
:10209000D01A704710B50146C268900703D0900669
:1020A00007D5886A0AE0FEF723FE01210160881E39
:1020B00010BD8B69486818440B69C01A91F8483004
:1020C0001BB191F84910401A10BD1103FCD500282E
:1020D000FADD401E10BD10B5431C02E010F8011BD4
:1020E00071B18107FAD14FF0013202C88C1A8C43CA
:1020F00014EAC211F9D0C01A0A0603D0C01E10BDDE
:10210000C01A10BD0A0401D0801E10BD0902FCD007
:10211000401E10BD82B001900091002002B07047B7
:10212000FFE7FEE782B001900198406BA0F201202A
:1021300001460091072800F217810099DFE801F0BD
:102140000426486A8CAED0F20198818D49BA00EE1F
:10215000101AB8EEC00AD0F83D0080ED0B0A0198C5
:10216000C18D49BA00EE101AB8EEC00AD0F83D0091
:1021700080ED0A0A0198018E49BA00EE101AB8EEF5
:10218000C00AD0F83D0080ED0C0AEDE00198818D89
:1021900049BA00EE101AB8EEC00AD0F83D0080ED42
:1021A000160A0198C18D49BA00EE101AB8EEC00A9D
:1021B000D0F83D0080ED150A0198018E49BA00EE75
:1021C000101AB8EEC00AD0F83D0080ED170ACBE037
:1021D0000198818D49BA00EE101AB8EEC00AD0F805
:1021E0003D0080ED210A0198C18D49BA00EE101A18
:1021F000B8EEC00AD0F83D0080ED200A0198018EAB
:1022000049BA00EE101AB8EEC00AD0F83D0080EDD1
:10221000220AA9E00198818D49BA00EE101AB8EEA1
:10222000C00AD0F83D0080ED2C0A0198C18D49BA52
:1022300000EE101AB8EEC00AD0F83D0080ED2B0A6F
:102240000198018E49BA00EE101AB8EEC00AD0F813
:102250003D0080ED2D0A87E00198818D49BA00EE9E
:10226000101AB8EEC00AD0F83D0080ED0B0A0198B4
:10227000C18D49BA00EE101AB8EEC00AD0F83D0080
:1022800080ED0A0A0198018E49BA00EE101AB8EEE4
:10229000C00AD0F83D0080ED0C0A65E00198818D00
:1022A00049BA00EE101AB8EEC00AD0F83D0080ED31
:1022B000160A0198C18D49BA00EE101AB8EEC00A8C
:1022C000D0F83D0080ED150A0198018E49BA00EE64
:1022D000101AB8EEC00AD0F83D0080ED170A43E0AE
:1022E0000198818D49BA00EE101AB8EEC00AD0F8F4
:1022F0003D0080ED210A0198C18D49BA00EE101A07
:10230000B8EEC00AD0F83D0080ED200A0198018E99
:1023100049BA00EE101AB8EEC00AD0F83D0080EDC0
:10232000220A21E00198818D49BA00EE101AB8EE18
:10233000C00AD0F83D0080ED2C0A0198C18D49BA41
:1023400000EE101AB8EEC00AD0F83D0080ED2B0A5E
:102350000198018E49BA00EE101AB8EEC00AD0F802
:102360003D0080ED2D0AFFE702B0704780B58EB0CA
:102370000D908DF833100B92C4200290FDF7FCFFF6
:10238000029909909DF83300099A10700B98099AE8
:1023900050700020039008900790069005900490DC
:1023A0000998FEF704F903980D9904910B9905918A
:1023B00042F22511C0F600010791099908910A908F
:1023C000FFE70A9803281EDCFFE70B98B0F5007FB3
:1023D00005D1FFE70A9800F50070019004E00A9823
:1023E00000F501700190FFE70198069004A800F045
:1023F0008FF909990A9A01EB82014860FFE70A9870
:1024000001300A90DDE7099840F20443C2F200036C
:102410001A68511C196040F28C11C2F2000141F897
:1024200022000EB080BD000080B584B08DF80F0092
:102430009DF80F0000F050F80020029001900090ED
:10244000FFE70098052831DCFFE79DF80F1040F208
:102450008C10C2F2000050F82120DDF800C00CEB17
:10246000DC7149082C2301FB032191ED0F0ABDEE1D
:10247000C00A10EE101A090A01AA02F80C109DF801
:102480000F1050F821C0009901EBD170400800FBFB
:1024900003C090ED0F0ABDEEC00A10EE100A114401
:1024A0004870FFE7009802300090CAE79DF80F10CF
:1024B00040F28C10C2F2000050F821104A680199D5
:1024C000029B936251629DF80F1050F82100406802
:1024D00000F0C6F904B080BD82B08DF8070000207E
:1024E0000090FFE70098032847DCFFE79DF80710FE
:1024F00040F28C10C2F2000050F8212000982C21EC
:1025000000FB0120007F78B9FFE79DF8071040F23B
:102510008C10C2F2000050F8212000982C2100FB02
:1025200001210020C86323E09DF8071040F28C10C1
:10253000C2F2000050F8212000982C2100FB01205D
:10254000407F012813D1FFE79DF8071040F28C105F
:10255000C2F2000050F8212000982C2100FB01203D
:1025600090ED0F0AB1EE400A80ED0F0AFFE7FFE79A
:10257000FFE7009801300090B4E702B07047000018
:1025800080B540F23420C2F2000000F083FD80BD2F
:1025900080B540F23420C2F2000000F07BFD80BD27
:1025A00080B540F25C20C2F2000000F073FD80BDF7
:1025B00080B540F25C20C2F2000000F06BFD80BDEF
:1025C00080B58CB00B900020079008900B98C169E3
:1025D0000120884305900E200A900B98406B400123
:1025E00002900B98006840F23421C2F20001884248
:1025F00009D1FFE740F29C12C2F200021078411CA0
:102600001170009008E040F20C02C2F20002107853
:10261000411C11700090FFE700980690012009907E
:102620000B98006801A900F0F3FA0CB080BD00001F
:1026300080B586B005900491FFE70598049900F0F5
:10264000BDFB002862D0FFE70598049940F2A01274
:10265000C2F2000202AB00F0DBFB00200190FFE7BA
:10266000019840F20841C2F20001097888424CD238
:10267000FFE70598019A40F2D811C2F2000151F823
:102680002210096888423BD1FFE740F2A010C2F255
:1026900000000068019A40F2D811C2F2000151F81E
:1026A0002210496B88422BD1FFE7019940F2D810E4
:1026B000C2F2000050F82100D0F83900F8B1FFE76D
:1026C00040F2A011C2F200010A69019B40F2D81049
:1026D000C2F20000009050F8233083F83820019AAD
:1026E00050F822002C300A6902A9FDF7F9FE009883
:1026F000019950F82100D0F839108847FFE705E02C
:10270000FFE7019801300190AAE796E706B080BD87
:1027100080B584B0039040F20840C2F20000007817
:1027200018B9FFE700F078F8FFE740F20840C2F27E
:1027300000000078102802DBFFE7FFE7FEE700203B
:102740000290FFE7029840F20841C2F200010978C6
:10275000884221D2FFE7029940F2D810C2F200006D
:1027600050F82100406B0399896888420FD1FFE738
:10277000029940F2D810C2F2000050F8210000681F
:1027800003990968884202D1FFE7FFE7FEE7FFE708
:10279000029801300290D5E741200090FDF7ECFD52
:1027A000009901900198FDF7E0FE039840680199B7
:1027B000486001990020C8600199086101990820CA
:1027C000486103980068019908600398406801997E
:1027D000C86103988068019948630398C0680199AB
:1027E000C1F83900039800690199C1F83D000198CA
:1027F000FFF7E6FE019840F20843C2F200031A78A0
:10280000511C197040F2D811C2F2000141F82200A7
:10281000019804B080BD000080B584B040F234203F
:10282000C2F20000009001F017F800980221019117
:1028300000F018F900981021029100F013F940F20D
:102840005C20C2F20000039001F006F801990398A1
:1028500000F008F90299039800F004F904B080BD73
:1028600080B582B00090FFE70098006800F0DAFBC6
:1028700008B9FFE7F8E7009A134653F8200B111D3B
:10288000243200F019F958B1FFE740F2BC11C2F24E
:10289000000108680130086001208DF8070003E09E
:1028A00000208DF80700FFE79DF8070002B080BD0B
:1028B00080B540F28420C2F2000001F0C7F880BD6C
:1028C00082B001900198007810384AF6AB21CAF620
:1028D000AA21A0FB01100009009000994AF6C860E7
:1028E000C0F60000405C0199C8650098042807D331
:1028F000FFE701990868042262F30900886506E091
:102900000199086840F2FF3290438865FFE701981B
:10291000806D02B07047000086B0059000208DF8F1
:1029200013000598806A03900598806910BBFFE743
:102930000398029003281BD80299DFE801F0020DEA
:102940000218059890F82F00C00720B1FFE701207A
:102950008DF81300FFE70CE00598C06AB0F1C07F66
:1029600004D1FFE701208DF81300FFE701E000E04C
:10297000FFE745E005988069B0F5005F25D1FFE7E6
:102980000398019003281ED80199DFE801F00206A0
:10299000021101208DF8130016E0059890F82F0021
:1029A000C00720B1FFE701208DF81300FFE70BE01F
:1029B0000598C06AB0F1C07F04D1FFE701208DF80F
:1029C0001300FFE700E0FFE719E0039800900328F9
:1029D00004D3FFE70098032804D00EE001208DF80F
:1029E00013000BE0059890F82F00C00720B1FFE717
:1029F00001208DF81300FFE700E0FFE7FFE7FFE7A6
:102A00009DF8130006B0704784B0039002910192C4
:102A1000009303980168086820F4802008600098FB
:102A200003990968486003988068402809D1FFE746
:102A30000198039909688860029803990968C86039
:102A400008E0029803990968886001980399096869
:102A5000C860FFE704B070477047000072B6FFE738
:102A6000FEE7000084B002900191029890F82000E7
:102A70008DF803009DF80300012805D0FFE79DF8BD
:102A8000030002280AD1FFE7019A02980168486909
:102A90001043486100208DF80F0008E00299486A51
:102AA00040F48020486201208DF80F00FFE79DF878
:102AB0000F0004B07047000088B0069005910492A2
:102AC0000393069890F820008DF807000698006898
:102AD000806800900598806808B9FFE700E0FFE78C
:102AE0009DF80700012806D0FFE79DF8070002289F
:102AF00040F08080FFE79DF80300400700280CD4D9
:102B0000FFE79DF803000007002806D4FFE79DF8C3
:102B10000300C006002864D5FFE70098C0F30160F9
:102B20000290029901208840039908600598806806
:102B300068B9FFE705980168C06840EA4150069906
:102B40000968029A01EB0211C1F880010EE00599B3
:102B50004A688868C96840EAC2000843069909685B
:102B6000029A01EB0211C1F88001FFE705980069A4
:102B700006990968029A01EB0211C1F884010598CF
:102B8000007D01280CD1FFE706980068029900EB50
:102B90000111D1F8840140F48070C1F88401FFE78D
:102BA0000498406806990968029A01EB0211C1F87D
:102BB0008C010498006806990968029A01EB0211D9
:102BC000C1F8880106980068029900EB0111D1F85C
:102BD000800140F00100C1F8800100208DF81F0045
:102BE00011E00699486A40F40010486201208DF80F
:102BF0001F0008E00699486A40F4802048620120DE
:102C00008DF81F00FFE79DF81F0008B07047000017
:102C100086B004900391049800680190049890F89D
:102C200020008DF803009DF80300012806D0FFE77F
:102C30009DF80300022840F0B080FFE746F2004014
:102C4000C4F2000001900199D1F8000240F00100A7
:102C5000C1F800020199D1F8000220F47C50C1F8BB
:102C600000020398426A0199D1F8000240EA02206A
:102C7000C1F800020398406900F01F01012088405C
:102C80000290029A0199D1F81C029043C1F81C02EB
:102C90000398C069F0B9FFE7029A0199D1F80C02D4
:102CA0009043C1F80C02039A9088D168526940EAB7
:102CB0000140019901EBC201C1F84002039A10885A
:102CC0009168526940EA0140019901EBC201C1F8E3
:102CD0004402FFE70398C06901281ED1FFE7029A6A
:102CE0000199D1F80C021043C1F80C02039A9088A4
:102CF0001168526940EA0140019901EBC201C1F833
:102D00004002039A90899168526940EA0140019912
:102D100001EBC201C1F84402FFE70398806940B9A2
:102D2000FFE7029A0199D1F804029043C1F8040226
:102D300007E0029A0199D1F804021043C1F8040295
:102D4000FFE70398006940B9FFE7029A0199D1F8BB
:102D500014029043C1F8140207E0029A0199D1F8D5
:102D600014021043C1F81402FFE70398006A012817
:102D700008D1FFE7029A0199D1F81C021043C1F86B
:102D80001C02FFE70199D1F8000220F00100C1F810
:102D9000000200208DF8170008E00499486A40F40A
:102DA0008020486201208DF81700FFE79DF817008A
:102DB00006B0704781B0009001B0704784B00390B6
:102DC000029100200190039890F820008DF80300F4
:102DD0009DF80300012805D0FFE79DF803000228B5
:102DE00012D1FFE7029838B9FFE703980068C0687E
:102DF00000F00300019006E003980068006900F00D
:102E000003000190FFE7FFE7019804B0704700005E
:102E100086B00490039102920193049890F82000E8
:102E20008DF803009DF80300012806D0FFE79DF808
:102E30000300022840F0E880FFE7039880B9FFE72D
:102E400004980068C068800748B9FFE70499486A99
:102E500040F40010486201208DF81700DDE00FE01B
:102E6000049800680069800748B9FFE70499486A38
:102E700040F40010486201208DF81700CDE0FFE714
:102E800004980068039900EB0110D0F8B00100F03D
:102E90000400029988600298806858B9FFE7049896
:102EA0000068039900EB0110D0F8B001400D0299C1
:102EB00008600AE004980068039900EB0110D0F85C
:102EC000B001C00802994860FFE7049800680399C0
:102ED00000EB0110D0F8B00100F002000299C860C8
:102EE00004980068039900EB0110D0F8B40100F0D9
:102EF0000F00082804D3FFE70299082008610BE0BF
:102F000004980068039900EB0110D0F8B40100F0B8
:102F10000F0002990861FFE704980068039900EB2D
:102F20000110D0F8B40180B2000A029988610498B7
:102F30000068039900EB0110D0F8B401000C02996D
:102F4000486104980068039900EB0110D0F8B801BB
:102F50000199087004980068039900EB0110D0F8FB
:102F6000B801000A0199487004980068039900EBC1
:102F70000110D0F8B801000C01998870049800681D
:102F8000039900EB0110D0F8B801000E0199C87048
:102F900004980068039900EB0110D0F8BC01019976
:102FA000087104980068039900EB0110D0F8BC0187
:102FB000000A0199487104980068039900EB011018
:102FC000D0F8BC01000C019988710498006803993D
:102FD00000EB0110D0F8BC01000E0199C8710398F4
:102FE00038B9FFE704980168C86840F02000C8605D
:102FF00006E004980168086940F020000861FFE7D6
:1030000000208DF8170008E00499486A40F48020F9
:10301000486201208DF81700FFE79DF8170006B001
:103020007047000083B0029000200190029890F851
:1030300020008DF803009DF80300012805D0FFE76C
:103040009DF80300022822D1FFE7029800688068FB
:103050004001002804D5FFE7019801300190FFE707
:103060000298006880680001002804D5FFE70198F5
:1030700001300190FFE7029800688068C0000028D6
:1030800004D5FFE7019801300190FFE7FFE70198C1
:1030900003B0704780B58AB0099000200890099865
:1030A0000068406907900998006840680690099890
:1030B00000688068059009980068C06804900998C5
:1030C00000680069039009980068806902909DF883
:1030D0001C00C007002800F09480FFE79DF8140052
:1030E000C00758B3FFE709980168012088609DF880
:1030F00014008007002804D5FFE7099800F0F6FBCC
:103100001BE09DF814004007002805D5FFE708984C
:1031100040F4006008900FE09DF8140000070028BC
:1031200005D5FFE7089840F48050089003E009981F
:1031300000F0D8FBFFE7FFE7FFE7FFE79DF815008A
:10314000C00760B3FFE7099801684FF4807088609A
:103150009DF815008007002804D5FFE7099800F0C6
:10316000CDFB1BE09DF815004007002805D5FFE7C3
:10317000089840F4005008900FE09DF815000007F3
:10318000002805D5FFE7089840F48040089003E048
:10319000099800F0AFFBFFE7FFE7FFE7FFE79DF8C7
:1031A0001600C00760B3FFE7099801684FF480304C
:1031B00088609DF816008007002804D5FFE709986D
:1031C00000F0A4FB1BE09DF816004007002805D581
:1031D000FFE7089840F4004008900FE09DF81600C3
:1031E0000007002805D5FFE7089840F480300890D4
:1031F00003E0099800F086FBFFE7FFE7FFE7FFE742
:10320000FFE79DF81C000007002810D5FFE79DF898
:103210001000C006002809D5FFE7089840F40070A8
:103220000890099801681020C860FFE7FFE79DF843
:103230001C00400700280FD5FFE79DF8100000078D
:10324000002808D5FFE7099801680820C860099898
:1032500000F0E2FAFFE7FFE79DF81C008007002876
:103260000BD5FFE709980068C068800720B1FFE729
:10327000099800F0D5FAFFE7FFE79DF81C0040062B
:10328000002810D5FFE79DF80C00C006002809D5DE
:10329000FFE7089840F480600890099801681020C2
:1032A0000861FFE7FFE79DF81C00800600280FD5A6
:1032B000FFE79DF80C000007002808D5FFE70998F4
:1032C000016808200861099800F0B4FAFFE7FFE7F9
:1032D0009DF81C00C00600280BD5FFE70998006880
:1032E0000069800720B1FFE7099800F0A7FAFFE71F
:1032F000FFE79DF81E00800700280FD5FFE79DF827
:103300001800C006002808D5FFE7099801681020BA
:103310004860099800F09CFAFFE7FFE79DF81E005F
:10332000C00778B1FFE79DF818000007002808D50E
:10333000FFE70998016808204860099800F0EAFA58
:10334000FFE7FFE79DF81D000006002840F18D8093
:10335000FFE79DF818004007002840F18180FFE753
:103360009DF81D00C00750B1FFE79DF80800C00799
:1033700028B1FFE7089840F001000890FFE79DF8AA
:103380001D00800700280BD5FFE79DF80800800787
:10339000002805D5FFE7089840F002000890FFE7F5
:1033A0009DF81D00400700280BD5FFE79DF8080099
:1033B0004007002805D5FFE7089840F00400089072
:1033C000FFE79DF81D000007002848D5FFE79DF89E
:1033D000080010F0700F42D0FFE7029800F0700074
:1033E00001460191102814D0FFE70198202815D03C
:1033F000FFE70198302816D0FFE70198402817D042
:10340000FFE70198502818D0FFE70198602819D0ED
:103410001DE0089840F00800089019E0089840F076
:103420001000089014E0089840F0200008900FE089
:10343000089840F0400008900AE0089840F08000AA
:10344000089005E0089840F48070089000E0FFE7DD
:1034500009980168886920F070008861FFE7FFE73C
:103460000998016804204860FFE7089848B1FFE721
:10347000089A0999486A104348620998FFF79AFC2C
:10348000FFE70AB080BD000080B584B002900298CA
:1034900020B9FFE701208DF80F00E0E0029890F8D6
:1034A000200020B9FFE7029800F0DEF8FFE702985D
:1034B0000168086840F00100086000F081FF019099
:1034C000FFE7029800684068C007A8B9FFE700F06E
:1034D00077FF0199401A0B280DD3FFE70299486A3C
:1034E00040F4003048620299052081F82000012054
:1034F0008DF80F00B3E0E4E702980168086820F057
:103500000200086000F05CFF0190FFE7029800688D
:1035100040688007002815D5FFE700F051FF0199AA
:10352000401A0B280DD3FFE70299486A40F4003097
:1035300048620299052081F8200001208DF80F00D3
:103540008DE0E3E70298007E012807D1FFE70298AB
:103550000168086840F08000086006E00298016891
:10356000086820F080000860FFE70298407E01288C
:1035700007D1FFE702980168086840F04000086042
:1035800006E002980168086820F040000860FFE744
:103590000298807E012807D1FFE702980168086839
:1035A00040F02000086006E002980168086820F0FA
:1035B00020000860FFE70298C07E012807D1FFE7DE
:1035C00002980168086820F01000086006E0029880
:1035D0000168086840F010000860FFE70298007F6B
:1035E000012807D1FFE702980168086840F0080049
:1035F000086006E002980168086820F0080008608A
:10360000FFE70298407F012807D1FFE70298016891
:10361000086840F00400086006E002980168086845
:1036200020F004000860FFE7029B19685A68986858
:10363000D3F80CC040EA0C00D3F810C040EA0C00EC
:103640005B691843013A1043C8610299002048623F
:10365000029A012182F820108DF80F00FFE79DF8F3
:103660000F0004B080BD000080B594B0139000201E
:103670001290119010900F900E901398006846F2DF
:103680000041C4F20001884254D1FFE740F2C0106B
:10369000C2F200000168013101600068012812D106
:1036A000FFE7FFE700200D9043F64000C4F2020060
:1036B000016841F000710160006800F000700D9039
:1036C0000D98FFE7FFE7FFE700200C9043F630007E
:1036D000C4F20200016841F001010160006800F0DD
:1036E00001000C900C98FFE74FF4C0500E900220A0
:1036F0000F900120109003201190092012900020BB
:10370000C4F202000EA900F04BFC14200590052124
:1037100006910022079200F0F1FE059800F0E4FE09
:103720000699079A1520089000F0E8FE089800F026
:10373000DBFE6FE01398006846F60001C4F200015A
:10374000884266D1FFE7FFE700200B9043F6400078
:10375000C4F20200016841F080610160006800F07D
:1037600080600B900B98FFE740F2C010C2F200009F
:103770000168013101600068012812D1FFE7FFE70D
:1037800000200A9043F64000C4F20200016841F0B4
:1037900000710160006800F000700A900A98FFE76D
:1037A000FFE7FFE70020099043F63000C4F2020073
:1037B000016841F002010160006800F00200099018
:1037C0000998FFE74FF440500E9002200F9001201F
:1037D0001090032011900920129040F20040C4F292
:1037E00002000EA900F0DCFB4020019005210291AF
:1037F0000022039200F082FE019800F075FE02990B
:10380000039A4120049000F079FE049800F06CFEC9
:10381000FFE7FFE714B080BD81B0009001B07047B2
:1038200080B582B0019001980021FEF701FF02B03F
:1038300080BD000081B0009001B0704780B582B0BB
:10384000019001980121FEF7F3FE02B080BD000057
:1038500081B0009001B0704780B584B002900298AA
:1038600090F8200001282FD1FFE70299022081F86B
:10387000200002980168086820F00100086000F04C
:103880009FFD0190FFE7029800684068C007A8B15B
:10389000FFE700F095FD0199401A0B280DD3FFE7D3
:1038A0000299486A40F4003048620299052081F884
:1038B000200001208DF80F000FE0E4E702990020BE
:1038C00048628DF80F0008E00299486A40F4002031
:1038D000486201208DF80F00FFE79DF80F0004B04B
:1038E00080BD000081B0009001B0704781B00090B1
:1038F00001B0704781B0009001B0704781B0009076
:1039000001B0704781B0009001B0704781B0009065
:1039100001B0704781B0009001B0704780B584B0AD
:1039200002900298806D019000F04AFD009002988C
:1039300090F8350002280DD0FFE7029980204865F5
:10394000FFE70299002081F83400FFE701208DF89D
:103950000F0055E002980168086820F01600086022
:1039600002980168486920F0800048610298006C64
:1039700020B9FFE70298806C38B1FFE70298016830
:10398000086820F008000860FFE7029801680868EE
:1039900020F001000860FFE7029800680068C00797
:1039A000C8B1FFE700F00CFD0099401A062811D3BA
:1039B000FFE70299202048650299032081F835002D
:1039C000FFE70299002081F83400FFE703208DF81B
:1039D0000F0015E0E0E70298C16D3F208840019993
:1039E00088600299012081F83500FFE702990020E4
:1039F00081F83400FFE7FFE700208DF80F00FFE7B4
:103A00009DF80F0004B080BD82B00090009890F83F
:103A10003500022807D0FFE7009980204865012083
:103A20008DF807000EE00099052081F83500009818
:103A30000168086820F001000860FFE700208DF8A9
:103A40000700FFE79DF8070002B0704780B586B019
:103A500005900020039040F21800C2F200000068B8
:103A600048F2B511C1F64E31A0FB0110800A029058
:103A70000598806D0190019800680490049805995C
:103A8000C96DC840000700281AD5FFE705980068EF
:103A900000684007002812D5FFE70598016808680C
:103AA00020F0040008600598C16D08208840019945
:103AB00088600599486D40F001004865FFE7FFE721
:103AC00004980599C96DC840C007A0B1FFE70598E3
:103AD00000684069000600280CD5FFE70598C16D15
:103AE00001208840019988600599486D40F00200E6
:103AF0004865FFE7FFE704980599C96DC84040078E
:103B0000002814D5FFE705980068006880070028A2
:103B10000CD5FFE70598C16D0420884001998860A5
:103B20000599486D40F004004865FFE7FFE70498F9
:103B30000599C96DC840C006002847D5FFE705981C
:103B400000680068000700283FD5FFE70598C16DB1
:103B5000102088400199886005980068006840033B
:103B600000281AD5FFE705980068006800030028C0
:103B700009D4FFE70598006C20B1FFE70598016CB8
:103B80008847FFE708E00598806C20B1FFE70598BB
:103B9000816C8847FFE7FFE716E00598006800683A
:103BA000C005002807D4FFE705980168086820F0E1
:103BB00008000860FFE70598006C20B1FFE7059852
:103BC000016C8847FFE7FFE7FFE7FFE704980599E7
:103BD000C96DC8408006002840F18D80FFE7059838
:103BE00000680068C006002840F18480FFE705985F
:103BF000C16D2020884001998860059890F83500B3
:103C0000052834D1FFE705980168086820F0160000
:103C1000086005980168486920F0800048610598AF
:103C2000006C20B9FFE70598806C38B1FFE7059874
:103C30000168086820F008000860FFE70598C16D7A
:103C40003F208840019988600599012081F835005E
:103C5000FFE70599002081F83400FFE70598006D23
:103C600020B1FFE70598016D8847FFE77BE00598E5
:103C700000680068400300281AD5FFE7059800682F
:103C800000680003002809D4FFE70598406C20B1C4
:103C9000FFE70598416C8847FFE708E00598C06B8F
:103CA00020B1FFE70598C16B8847FFE7FFE720E0F9
:103CB000059800680068C005002811D4FFE7059842
:103CC0000168086820F0100008600599012081F85B
:103CD0003500FFE70599002081F83400FFE7FFE792
:103CE0000598C06B20B1FFE70598C16B8847FFE7D7
:103CF000FFE7FFE7FFE70598406DA0B3FFE70598F2
:103D0000406DC00730B3FFE70599052081F8350005
:103D100005980168086820F001000860FFE7039833
:103D2000013003900299884201D9FFE707E0FFE7DD
:103D3000059800680068C0070028F0D1FFE70599E2
:103D4000012081F83500FFE70599002081F8340053
:103D5000FFE7FFE70598C06C20B1FFE70598C16C4D
:103D60008847FFE7FFE706B080BD000080B586B05A
:103D700004900020039000F023FB0290049820B9E7
:103D8000FFE701208DF81700A3E00498406A08B10E
:103D9000FFE7FFE70499022081F83500FFE7049967
:103DA000002081F83400FFE704980168086820F0DB
:103DB00001000860FFE7049800680068C00790B140
:103DC000FFE700F0FDFA0299401A06280AD3FFE740
:103DD0000499202048650499032081F835008DF866
:103DE000170076E0E7E704980068006803900398FE
:103DF00048F23F01CFF2100108400390049900916E
:103E00004868D1F808C0CB680A6940EA0C0018433A
:103E100010434A6910438A691043CA691043096A0A
:103E200001430398084303900498406A042808D18A
:103E3000FFE70499C86A096B01430398084303909C
:103E4000FFE70398049909680860049800684069CE
:103E50000390039820F0070003900498416A0398A8
:103E6000084303900498406A04281AD1FFE7049895
:103E7000816A0398084303900498C06A80B1FFE701
:103E80000498FEF749FD50B1FFE7049940204865CA
:103E90000499012081F835008DF8170019E0FFE73B
:103EA000FFE703980499096848610498FEF708FD44
:103EB00001900498C16D3F20884001998860049961
:103EC00000204865049A012182F835108DF817000A
:103ED000FFE79DF8170006B080BD000080B588B0F0
:103EE000069005910492039300208DF80B0006982C
:103EF000806D0190FFE7069890F83400012804D106
:103F0000FFE702208DF81F0045E00699012081F8A7
:103F10003400FFE7FFE7069890F8350001282BD121
:103F2000FFE70699022081F83500069900204865D0
:103F300006980599049A039BFEF766FD0698C16DE5
:103F40003F2088400199886006980168086840F021
:103F5000160008600698006C38B1FFE70698016803
:103F6000086840F008000860FFE7069801680868E4
:103F700040F00100086009E0FFE70699002081F8A1
:103F80003400FFE702208DF80B00FFE79DF80B00DF
:103F90008DF81F00FFE79DF81F0008B080BD0000EE
:103FA00090B00F900E9100200C900B900A900D9005
:103FB000FFE70D980F2800F2E881FFE70D99012037
:103FC00088400C900E9800680C9908400B900B9854
:103FD0000C99884240F0D481FFE70E98406800F0C9
:103FE0000300012807D0FFE70E98406800F00300A7
:103FF00002282FD1FFE70F9880680A900D984100A2
:10400000032000FA01F10A9888430A900E98C068CC
:104010000D99490000FA01F10A9808430A900A989C
:104020000F9988600F9840680A900D99012000FA56
:1040300001F10A9888430A900E984068C0F3001076
:104040000D9900FA01F10A9808430A900A980F990D
:104050004860FFE70E98406800F00300032818D07E
:10406000FFE70F98C0680A900D984100032000FAFE
:1040700001F10A9888430A900E9880680D994900CA
:1040800000FA01F10A9808430A900A980F99C8604B
:10409000FFE70E98406800F00300022826D1FFE7F2
:1040A0000F980D996FF0030202EA51010844006A6B
:1040B0000A900D9800F0070081000F2000FA01F12E
:1040C0000A9888430A900E9800690D9901F007013B
:1040D000890000FA01F10A9808430A900A980F999A
:1040E0000D9B02EA530211440862FFE70F98006833
:1040F0000A900D984100032000FA01F10A988843C4
:104100000A900E98406800F003000D99490000FAEB
:1041100001F10A9808430A900A980F9908600E98CE
:1041200080798007002800F02A81FFE7FFE7002060
:10413000099043F64400C4F20200016841F4804152
:104140000160006800F4804009900998FFE70D982D
:1041500020F0030043F60801C4F2010140580A9020
:104160000D9800F0030081000F2000FA01F10A9879
:1041700088430A900F980021C4F20201884203D1BB
:10418000FFE7002008907AE00F9840F20041C4F267
:104190000201884203D1FFE7012007906CE00F98ED
:1041A00040F60001C4F20201884203D1FFE7022079
:1041B00006905EE00F9840F60041C4F2020188428A
:1041C00003D1FFE70320059050E00F9841F2000172
:1041D000C4F20201884203D1FFE70420049042E0C8
:1041E0000F9841F20041C4F20201884203D1FFE777
:1041F0000520039034E00F9841F60001C4F202015B
:10420000884203D1FFE70620029026E00F9841F68E
:104210000041C4F20201884203D1FFE70720019068
:1042200018E00F9842F20001C4F20201884203D163
:10423000FFE7082000900AE00F9942F20042C4F222
:1042400002020A20914208BF09200090FFE700986F
:104250000190FFE701980290FFE702980390FFE7C3
:1042600003980490FFE704980590FFE705980690EF
:10427000FFE706980790FFE707980890FFE7089880
:10428000C0B20D9901F00301890000FA01F10A980A
:1042900008430A900A980D9921F0030143F6080299
:1042A000C4F20102885043F60840C4F201000068DD
:1042B0000A900B990A9888430A900E988079C00654
:1042C000002805D5FFE70B990A9808430A90FFE7F5
:1042D0000A9843F60841C4F20101086043F60C4015
:1042E000C4F2010000680A900B990A9888430A906A
:1042F0000E9880798006002805D5FFE70B990A986B
:1043000008430A90FFE70A9843F60C41C4F2010102
:10431000086043F60440C4F2010000680A900B995B
:104320000A9888430A900E9880798007002805D55E
:10433000FFE70B990A9808430A90FFE70A9843F6AB
:104340000441C4F20101086043F60040C4F20100D8
:1043500000680A900B990A9888430A900E98807911
:10436000C00728B1FFE70B990A9808430A90FFE7B6
:104370000A9843F60041C4F201010860FFE7FFE735
:10438000FFE70D9801300D9013E610B07047000064
:1043900082B00190ADF802108DF801209DF8010067
:1043A00028B1FFE7BDF802000199886105E0BDF87A
:1043B0000200000401998861FFE702B07047000025
:1043C00044F26020C2F200000068704740F2200012
:1043D000C2F20000027844F26021C2F200010868D3
:1043E000104408607047000080B543F60041C4F2F5
:1043F0000201086840F400700860086840F48060BA
:104400000860086840F480700860032000F090F8AD
:104410000F2000F005F800F03BF8002080BD000000
:1044200080B582B0009040F21800C2F2000000682F
:1044300040F22001C2F200010A784FF47A71B1FB18
:10444000F2F1B0FBF1F000F00BFE20B1FFE701202C
:104450008DF8070018E000980F280DD8FFE70099A5
:104460004FF0FF30002200F049F8009840F224019C
:10447000C2F20001086003E001208DF8070003E0AC
:1044800000208DF80700FFE79DF8070002B080BD0F
:1044900080B582B0FFE70020019043F64400C4F2EB
:1044A0000200016841F480410160006800F480402E
:1044B00001900198FFE7FFE70020009043F64000DD
:1044C000C4F20200016841F080510160006800F010
:1044D000805000900098FFE76FF001000F2100224C
:1044E00000F00CF802B080BD80B582B08DF80700F6
:1044F0009DF9070003F026FE02B080BD80B586B0AE
:104500008DF81700049103920020029003F032FE10
:1045100002909DF91700019002980499039A02F005
:10452000E1F80146019803F02DFE06B080BD0000C1
:1045300080B582B00190019803F046FE02B080BDC4
:1045400080B584B000200290FFE70020019043F680
:104550004000C4F20200016841F08051016000682F
:1045600000F0805001900198FFE74021C4F20E2135
:1045700001200860FFF724FF0290FFE747F20400E4
:10458000C4F20000006800F48030B0F5803F0DD028
:10459000FFE7FFF715FF0299401AB0F57A7F04D9BB
:1045A000FFE703208DF80F0025E0E7E74421C4F280
:1045B0000E2101200860FFF703FF0290FFE747F29A
:1045C0000400C4F20000006800F40030B0F5003FC1
:1045D0000DD0FFE7FFF7F4FE0299401AB0F57A7F9D
:1045E00004D9FFE703208DF80F0004E0E7E700207F
:1045F0008DF80F00FFE79DF80F0004B080BD0000AC
:1046000080B584B002900191029820B9FFE70120A3
:104610008DF80F0021E1019843F60041C4F2020138
:10462000096801F00F01884212D9FFE7019943F6AA
:104630000040C4F202000170006800F00F00019910
:10464000884204D0FFE701208DF80F0005E1FFE765
:1046500002980078800700282AD5FFE702980078A2
:104660004007002809D5FFE743F60801C4F202011C
:10467000086840F4E0500860FFE7029800780007FF
:10468000002809D5FFE743F60801C4F202010868D3
:1046900040F460400860FFE743F60801C4F20201FD
:1046A000086820F0F000029A926810430860FFE763
:1046B00002980078C00700286ED0FFE70298406893
:1046C000012811D1FFE743F60000C4F202000068A0
:1046D00000F400310020B0EB514F04D1FFE701207E
:1046E0008DF80F00B9E02CE002984068022805D050
:1046F000FFE702984068032811D1FFE743F6000066
:10470000C4F20200006800F000710020B0EB516FAD
:1047100004D1FFE701208DF80F009EE010E043F682
:104720000000C4F20200006800F002010020B0EBBB
:10473000510F04D1FFE701208DF80F008DE0FFE756
:10474000FFE743F60801C4F20201086820F0030005
:10475000029A526810430860FFF732FE0090FFE7AC
:1047600043F60800C4F20200006800F00C00029951
:104770004968B0EB810F0ED0FFE7FFF721FE0099EB
:10478000401A41F28931884204D3FFE703208DF8B3
:104790000F0062E0E4E7FFE7019843F60041C4F24E
:1047A0000201096801F00F01884212D2FFE7019966
:1047B00043F60040C4F202000170006800F00F00F0
:1047C0000199884204D0FFE701208DF80F0044E0F2
:1047D000FFE702980078400700280CD5FFE743F672
:1047E0000801C4F20201086820F4E050029AD2687D
:1047F00010430860FFE702980078000700280DD5F5
:10480000FFE743F60801C4F20201086820F46040A3
:10481000029A126940EAC2000860FFE700F04CF813
:1048200043F60801C4F202010968C9B20A094AF64E
:10483000B061C0F60001895CC84040F21801C2F2C4
:104840000001086040F22400C2F200000068FFF797
:10485000E7FD00208DF80F00FFE79DF80F0004B082
:1048600080BD000040F21800C2F2000000687047EE
:1048700080B5FFF7F7FF43F60801C4F202010968AB
:10488000C1F382224AF6C061C0F60001895CC840CB
:1048900080BD000080B5FFF7E5FF43F60801C4F2D4
:1048A0000201096889B24A0B4AF6C061C0F60001EC
:1048B000895CC84080BD000080B586B000200590AE
:1048C00004900390029043F60800C4F202000068CE
:1048D00000F00C000146019140B1FFE70198042867
:1048E0000AD0FFE7019808280CD04FE042F20040C0
:1048F000C0F2F40002904FE041F60030C0F2B70081
:10490000029049E043F60400C4F20200016801F09D
:104910003F01059100684002002813D5FFE743F6E8
:104920000400C4F202000068C0F3881041F60031B0
:10493000C0F2B701A0FB0101059A0023FBF74BFD74
:10494000049012E043F60400C4F202000068C0F3D1
:10495000881042F20041C0F2F401A0FB0101059A67
:104960000023FBF738FD0490FFE743F60400C4F290
:104970000200006800F44031022000EBD1300390C7
:1049800004980399B0FBF1F0029005E042F2004078
:10499000C0F2F4000290FFE7029806B080BD00006C
:1049A00080B586B00490049820B9FFE701208DF807
:1049B000170050E304980078C007002800F0A58095
:1049C000FFE743F60800C4F20200006800F00C00A4
:1049D000042813D0FFE743F60800C4F20200006881
:1049E00000F00C0008281ED1FFE743F60400C4F2D3
:1049F000020000684002002815D5FFE743F60000DA
:104A0000C4F20200006800F400310020B0EB514F06
:104A100008D0FFE70498406820B9FFE701208DF82F
:104A2000170018E370E0FFE704984068B0F5803F96
:104A300009D1FFE743F60001C4F20201086840F41F
:104A40008030086020E004984068B0F5A02F0DD1B8
:104A5000FFE743F60001C4F20201086840F4802039
:104A60000860086840F4803008600CE043F60001FC
:104A7000C4F20201086820F480300860086820F45D
:104A800080200860FFE7FFE7FFE704984068E8B18F
:104A9000FFE7FFF795FC0390FFE743F60000C4F241
:104AA0000200006800F400310020B0EB514F0CD13F
:104AB000FFE7FFF785FC0399401A652804D3FFE759
:104AC00003208DF81700C6E2E7E71CE0FFF778FC4B
:104AD0000390FFE743F60000C4F20200006800F410
:104AE00000310020B0EB514F0CD0FFE7FFF768FC1E
:104AF0000399401A652804D3FFE703208DF81700B7
:104B0000A9E2E7E7FFE7FFE7FFE7049800788007FF
:104B1000002840F19680FFE743F60800C4F2020047
:104B2000006810F00C0F13D0FFE743F60800C4F242
:104B30000200006800F00C0008282CD1FFE743F6C3
:104B40000400C4F2020000684002002823D4FFE7FA
:104B500043F60000C4F20200006800F002010020E9
:104B6000B0EB510F09D0FFE70498C068012804D0CA
:104B7000FFE701208DF817006DE243F60001C4F253
:104B80000201086820F0F800049A126940EAC200A5
:104B90000860FFE754E00498C06870B3FFE70021A5
:104BA000C4F2472101200860FFF70AFC0390FFE7E9
:104BB00043F60000C4F20200006800F00201002089
:104BC000B0EB510F0CD1FFE7FFF7FAFB0399401A46
:104BD000032804D3FFE703208DF817003BE2E7E743
:104BE00043F60001C4F20201086820F0F800049ABC
:104BF000126940EAC200086021E00021C4F24721A6
:104C000000200860FFF7DCFB0390FFE743F600009D
:104C1000C4F20200006800F002010020B0EB510F66
:104C20000CD0FFE7FFF7CCFB0399401A032804D30D
:104C3000FFE703208DF817000DE2E7E7FFE7FFE746
:104C4000FFE704980078000700284BD5FFE7049899
:104C5000406918B3FFE740F68061C4F247210120A4
:104C60000860FFF7ADFB0390FFE743F67400C4F262
:104C70000200006800F002010020B0EB510F0CD1DF
:104C8000FFE7FFF79DFB0399401A032804D3FFE7D2
:104C900003208DF81700DEE1E7E722E040F68061AF
:104CA000C4F2472100200860FFF78AFB0390FFE76A
:104CB00043F67400C4F20200006800F00201002014
:104CC000B0EB510F0CD0FFE7FFF77AFB0399401AC6
:104CD000032804D3FFE703208DF81700BBE1E7E7C3
:104CE000FFE7FFE7049800784007002840F1CE80F6
:104CF000FFE700208DF8070043F64000C4F20200F1
:104D00000068C000002815D4FFE7FFE700200090EE
:104D100043F64000C4F20200016841F08051016096
:104D2000006800F0805000900098FFE701208DF8A7
:104D30000700FFE747F20000C4F200000068C0056A
:104D4000002822D4FFE747F20001C4F200010868FE
:104D500040F480700860FFF733FB0390FFE747F2F1
:104D60000000C4F200000068C00500280CD4FFE772
:104D7000FFF726FB0399401A032804D3FFE703201B
:104D80008DF8170067E1EAE7FFE7FFE7049880681E
:104D9000012809D1FFE743F67001C4F20201086857
:104DA00040F0010008601FE00498806805280DD1DC
:104DB000FFE743F67001C4F20201086840F0040006
:104DC0000860086840F0010008600CE043F67001DC
:104DD000C4F20201086820F001000860086820F0B1
:104DE00004000860FFE7FFE7FFE704988068F8B178
:104DF000FFE7FFF7E5FA0390FFE743F67000C4F220
:104E00000200006800F002010020B0EB510F0ED14B
:104E1000FFE7FFF7D5FA0399401A41F2893188423A
:104E200004D3FFE703208DF8170014E1E5E71EE047
:104E3000FFF7C6FA0390FFE743F67000C4F20200E2
:104E4000006800F002010020B0EB510F0ED0FFE728
:104E5000FFF7B6FA0399401A41F28931884204D328
:104E6000FFE703208DF81700F5E0E5E7FFE79DF881
:104E70000700012809D1FFE743F64001C4F202010F
:104E8000086820F080500860FFE7FFE70498806919
:104E9000002800F0DC80FFE743F60800C4F20200BF
:104EA000006800F00C00082800F08580FFE70498F7
:104EB000806902285CD1FFE76021C4F2472100200D
:104EC0000860FFF77DFA0390FFE743F60000C4F2A5
:104ED0000200006800F000710020B0EB516F0CD0B0
:104EE000FFE7FFF76DFA0399401A032804D3FFE7A1
:104EF00003208DF81700AEE0E7E70499C869D1F800
:104F000020C04B6A8A6A40EA0C0040EA8310D20350
:104F10004FF6FF739A43A2F580321043C96A40EA04
:104F2000016043F60401C4F2020108606021C4F28A
:104F3000472101200860FFF743FA0390FFE743F69B
:104F40000000C4F20200006800F000710020B0EB25
:104F5000516F0CD1FFE7FFF733FA0399401A03288A
:104F600004D3FFE703208DF8170074E0E7E721E0A2
:104F70006021C4F2472100200860FFF721FA039066
:104F8000FFE743F60000C4F20200006800F0007181
:104F90000020B0EB516F0CD0FFE7FFF711FA039937
:104FA000401A032804D3FFE703208DF8170052E0CE
:104FB000E7E7FFE74AE004988069012804D1FFE7AA
:104FC00001208DF8170046E043F60400C4F2020009
:104FD0000068029004988069012831D0FFE70298A8
:104FE00000F480000499C969884229D1FFE702983A
:104FF00000F03F000499096A884221D1FFE7029836
:1050000047F6C07108400499496AB0EB811F17D177
:10501000FFE7029800F440300499896AC9034FF60B
:10502000FF729143A1F58031884209D1FFE70298D0
:1050300000F070600499C96AB0EB016F04D0FFE71B
:1050400001208DF8170006E0FFE7FFE7FFE70020EB
:105050008DF81700FFE79DF8170006B080BD00002F
:1050600080B582B00190019801F0C4FB02B080BD10
:1050700085B003900291FFE7039890F83C00012867
:1050800004D1FFE702208DF813007EE00399012090
:1050900081F83C00FFE7FFE70399022081F83D001B
:1050A0000398006840680190039800688068009049
:1050B000019820F07000019002980168019808435F
:1050C00001900198039909684860039800680021DD
:1050D000C4F2010188423CD0FFE703980068B0F1B8
:1050E000804F36D0FFE70398006840F20041C4F2D9
:1050F000000188422DD0FFE70398006840F60001C8
:10510000C4F20001884224D0FFE70398006840F60B
:105110000041C4F2000188421BD0FFE703980068F9
:1051200040F20041C4F20101884212D0FFE7039827
:10513000006844F20001C4F20101884209D0FFE78F
:105140000398006841F60001C4F2000188420ED1C4
:10515000FFE7009820F080000090029841680098D6
:10516000084300900098039909688860FFE7039955
:10517000012081F83D00FFE70399002081F83C0001
:10518000FFE700208DF81300FFE79DF8130005B03E
:105190007047000080B582B00090009820B9FFE70A
:1051A00001208DF807003FE0009890F83D0040B9DD
:1051B000FFE70099002081F83C00009800F038F8E3
:1051C000FFE70099022081F83D00009951F8040B97
:1051D00001F0B6FB0099012081F84600FFE7009935
:1051E000012081F83E00009981F83F00009981F884
:1051F0004000009981F84100FFE7FFE70099012096
:1052000081F84200009981F84300009981F8440038
:10521000009981F84500FFE70099012081F83D00E1
:1052200000208DF80700FFE79DF8070002B080BD61
:1052300083B002900298006840F60001C4F20001B9
:10524000884212D1FFE7FFE70020019043F64000BB
:10525000C4F20200016841F004010160006800F03E
:10526000040001900198FFE71BE00298006840F6F7
:105270000041C4F20001884212D1FFE7FFE700209D
:10528000009043F64000C4F20200016841F00801BA
:105290000160006800F0080000900098FFE7FFE759
:1052A000FFE703B07047000080B586B0049003911B
:1052B00000208DF80B00FFE7049890F83C000128CF
:1052C00004D1FFE702208DF81700ABE0049901201C
:1052D00081F83C00FFE7FFE70499022081F83D00D8
:1052E0000498006880680190019820F07700019090
:1052F000019820F47F400190019804990968886022
:10530000039800680090002872D0FFE700981028EA
:105310006ED0FFE7009820286AD0FFE70098302879
:1053200066D0FFE70098402855D0FFE70098502846
:1053300037D0FFE70098602840D0FFE7009870283A
:105340000BD0FFE70098B0F5805F05D0FFE700982D
:10535000B0F5005F16D052E055E004980068039B5A
:105360005A689968DB6801F0DFFB04980068806880
:105370000190019840F07700019001980499096824
:10538000886040E004980068039B5A689968DB686D
:1053900001F0CAFB04980168886840F48040886086
:1053A00031E004980068039A5168D26801F0A8FDC2
:1053B00004980068502101F0D1FB24E004980068B3
:1053C000039A5168D26801F0C3FD04980068602117
:1053D00001F0C4FB17E004980068039A5168D26892
:1053E00001F08EFD04980068402101F0B7FB0AE04F
:1053F000049800680399096801F0B0FB03E00120FC
:105400008DF80B00FFE70499012081F83D00FFE7CC
:105410000499002081F83C00FFE79DF80B008DF80F
:105420001700FFE79DF8170006B080BD80B58CB06F
:105430000B9000200A9009900890079006900B9816
:10544000006840F60001C4F20001884222D1FFE763
:10545000FFE70020059043F63000C4F20200016827
:1054600041F008010160006800F00800059005980F
:10547000FFE74FF47040069002200790002108914A
:1054800009910A9040F60040C4F2020006A9FEF716
:1054900087FD4EE00B98006840F60041C4F2000121
:1054A000884245D1FFE7FFE70020049043F6300033
:1054B000C4F20200016841F480710160006800F4E8
:1054C000807004900498FFE7FFE70020039043F604
:1054D0003000C4F20200016841F080010160006800
:1054E00000F0800003900398FFE70120069002205F
:1054F0000190079000210091089109910A9042F2D1
:105500000000C4F2020006A90291FEF749FD009ACC
:10551000019802994FF4E05306930790089209927C
:105520000A9041F60040C4F20200FEF739FDFFE7A1
:10553000FFE70CB080BD000080B586B004900391F9
:10554000029200208DF80700FFE7049890F83C00D5
:10555000012804D1FFE702208DF8170089E00499A3
:10556000012081F83C00FFE7FFE7029800900C283B
:1055700000F270800099DFE801F0076D6D6D206D1D
:105580006D6D3A6D6D6D530004980068039901F0DC
:10559000FBFA04980168886940F008008861049863
:1055A0000168886920F00400886103980269049802
:1055B000016888691043886150E004980068039985
:1055C00001F058FB04980168886940F40060886124
:1055D00004980168886920F48060886103980269F2
:1055E00004980168886940EA0220886136E00498DE
:1055F0000068039901F0B8FB04980168C86940F09D
:105600000800C86104980168C86920F00400C861F6
:105610000398026904980168C8691043C8611DE0D5
:1056200004980068039901F019FC04980168C8699E
:1056300040F40060C86104980168C86920F4806083
:10564000C8610398026904980168C86940EA0220A9
:10565000C86103E001208DF80700FFE7FFE7049928
:10566000002081F83C00FFE79DF807008DF8170047
:10567000FFE79DF8170006B080BD000080B582B03E
:105680000090009820B9FFE701208DF807003FE067
:10569000009890F83D0040B9FFE70099002081F89C
:1056A0003C00009800F038F8FFE70099022081F8EC
:1056B0003D00009951F8040B01F042F900990120D6
:1056C00081F84600FFE70099012081F83E0000992B
:1056D00081F83F00009981F84000009981F841006D
:1056E000FFE7FFE70099012081F84200009981F867
:1056F0004300009981F84400009981F84500FFE7D4
:105700000099012081F83D0000208DF80700FFE797
:105710009DF8070002B080BD81B0009001B07047D5
:1057200080B58CB00A900991099828B9FFE70A98CA
:1057300090F83E0007901CE00998042805D1FFE787
:105740000A9890F83F00069010E00998082805D1C3
:10575000FFE70A9890F84000059004E00A9890F856
:1057600041000590FFE705980690FFE7069807902F
:10577000FFE70798012804D0FFE701208DF82F00EC
:10578000AFE0099828B9FFE70A99022081F83E00A6
:105790001EE00998042806D1FFE70A99022081F843
:1057A0003F00049012E00998082806D1FFE70A9903
:1057B000022081F84000039005E00A99022081F858
:1057C00041000390FFE703980490FFE70498FFE788
:1057D0000A98006809990122019201F089F901985B
:1057E0000A9909680022C4F20102914202900CD089
:1057F000FFE70A9800684FF60041CBF6FE710844B7
:10580000B0FA80F040090290FFE70298C00738B173
:10581000FFE70A980168486C40F400404864FFE7DD
:105820000A9800680021C4F2010188423CD0FFE7D9
:105830000A980068B0F1804F36D0FFE70A980068F8
:1058400040F20041C4F2000188422DD0FFE70A98DF
:10585000006840F60001C4F20001884224D0FFE74E
:105860000A98006840F60041C4F2000188421BD04B
:10587000FFE70A98006840F20041C4F20101884243
:1058800012D0FFE70A98006844F20001C4F2010157
:10589000884209D0FFE70A98006841F60001C4F287
:1058A0000001884212D1FFE70A980068806800F082
:1058B000070008900898062807D0FFE70A980168B3
:1058C000086840F001000860FFE706E00A980168F8
:1058D000086840F001000860FFE700208DF82F0005
:1058E000FFE79DF82F000CB080BD000080B586B0AA
:1058F00004900391ADF80A20049890F84200202803
:105900004DD1FFE7039820B1FFE7BDF80A0020B9A9
:10591000FFE701208DF8170045E004990120086396
:1059200004990020486304980399BDF80A2001F007
:1059300001FE8DF809009DF8090058BBFFE70498A7
:10594000006B012821D1FFE7FFE7002001900498B8
:105950000068006801900498006840680190019810
:10596000FFE7FFE7FFE70498006850E8030F40F007
:1059700010000090FFE700990498026842E80310C5
:105980000028F0D1FFE7FFE703E001208DF80900D0
:10599000FFE7FFE79DF809008DF8170003E00220FC
:1059A0008DF81700FFE79DF8170006B080BD0000D6
:1059B00080B584B00390ADF80A1000208DF809007E
:1059C000FFE79DF8090040F20941C2F200010978A1
:1059D000884254DAFFE703989DF8092044F25421E5
:1059E000C2F2000151F82210D1F8041188423FD1CF
:1059F000FFE79DF8091044F25420C2F2000050F86D
:105A00002100D0F80801B0B1FFE79DF8091044F279
:105A10005420C2F20000019050F82100D0F8080193
:105A2000804701989DF8091050F82100BDF80A1030
:105A3000FAF7BDFDFFE79DF8091044F25420C2F2C9
:105A40000000009050F82110D1F8040191F80021D5
:105A5000FFF74CFF00989DF8091050F82100D0F88E
:105A60000401C06B0168086820F00800086006E0C7
:105A7000FFE79DF8090001308DF80900A1E704B0A7
:105A800080BD000080B584B0039000208DF80B002D
:105A9000FFE79DF80B0040F20941C2F200010978CE
:105AA000884232DAFFE703989DF80B2044F2542134
:105AB000C2F2000151F82210D1F8041188421DD120
:105AC000FFE79DF80B1044F25420C2F20000019051
:105AD00050F82110D1F8040191F80021FFF706FFDA
